:020000040800F2
:200000000000022005020008550200085502000855020008550200085502000800000000D4
:20002000000000000000000000000000550200085502000800000000550200082D1200085C
:200040005502000855020008550200085502000855020008550200085502000855020008A8
:20006000550200085502000855020008550200085502000855020008550200085502000888
:20008000550200085502000855020008550200085502000855020008550200085502000868
:2000A000550200085502000855020008550200085502000855020008550200085502000848
:2000C000550200085502000855020008550200085502000855020008550200085502000828
:2000E000550200085502000855020008550200085502000855020008550200085502000808
:200100005502000855020008550200085502000855020008550200085502000855020008E7
:20012000550200085502000855020008550200085502000800000000000000005502000885
:200140005502000855020008550200085502000855020008550200085502000855020008A7
:200160005502000855020008550200085502000855020008550200085502000800000000E6
:20018000000000005502000800000000000000005502000800000000000000005502000842
:2001A000000000000000000000000000550200085502000855020008550200085502000864
:2001C0005502000810B5054C237833B9044B13B10448AFF300800123237010BD04000020FA
:2001E000000000008412000808B5034B1BB103490348AFF3008008BD0000000008000020E4
:2002000084120008DFF834D0002103E00C4B5B58435004310B480C4B42189A42F6D30B4A91
:2002200002E0002342F8043B094B9A42F9D300F013F801F003F800F061FE70470000022035
:20024000B41200080000002004000020040000207C000020FEE700000F49D1F8883043F4D7
:200260007003C1F888300D4B1A68002042F001021A6098601A6822F0847222F480321A602D
:20028000074A5A601A6822F480221A60D8604FF000638B60704700BF00ED00E0003802401D
:2002A0001030002410B5084B044618684FF47A73B0FBF3F000F086F8002221464FF0FF30D5
:2002C00000F04CF8002010BD0000002008B50B4B1A6842F400721A601A6842F480621A6012
:2002E0001A6842F480721A60032000F025F80020FFF7D8FF00F06AFF002008BD003C024001
:20030000024A136801331360704700BF20000020014B1868704700BF2000002013B50190DE
:20032000FFF7F6FF0446FFF7F3FF019B001B9842F9D302B010BD0000074AD36823F4E063DE
:200340001B041B0C43F0BF63000243F4003300F4E0600343D360704700ED00E0174B70B5DE
:20036000DC68C4F30224C4F10705042D04F1040328BF04254FF0FF36062B06FA05F38CBF76
:20038000033C002421EA0303A34006FA04F422EA0404002843EA0403A8BF00F160404FEA6D
:2003A0000313BCBF00F00F00054ADBB2AABF00F56140135480F8003370BD00BF00ED00E007
:2003C00014ED00E00138B0F1807F0AD2064B074A5860F02182F823100020072298601A60B4
:2003E00070470120704700BF10E000E000ED00E0044B1A6804280CBF42F0040222F00402FA
:200400001A60704710E000E0704708B5FFF7FCFF08BD00002DE9F04F85B00B68DFF8A081BC
:20042000654ADFF8A091019300234FF0010C019C0CFA03FC04EA0C06B44540F0AA804C6859
:2004400024F01007022F16D14FEAD30A00EB8A0A03F0070BDAF820504FEA8B0B4FF00F0E52
:200460000EFA0BFE25EA0E0E0D6905FA0BF545EA0E05CAF820504FEA430A0325D0F800B031
:2004800005FA0AF5ED4304F0030E05EA0B0B0EFA0AFE013F4EEA0B0E012FC0F800E011D8D2
:2004A000876807EA050BCF6807FA0AFE4EEA0B078760476827EA0C0CC4F300179F4047EA25
:2004C0000C074760C7683D408F6807FA0AF73D43C560E5005DD54FF0000BCDF80CB0D8F866
:2004E0004470364D47F48047C8F84470D8F8447007F480470397039F23F0030707F18047F1
:2005000007F59C3703F0030ED7F808A04FEA8E0E4FF00F0C0CFA0EFCA8422AEA0C0C3FD02D
:2005200005F58065A8423DD005F58065A8423BD005F58065A84239D005F58065A84237D06F
:20054000484537D005F50065A84214BF0725062505FA0EF545EA0C05BD601568F74314F476
:20056000803F0CBF3D4035431560556814F4003F0CBF3D4035435560956814F4801F0CBF9F
:200580003D4035439560D568A40254BF3D403543D5600133102B7FF448AF05B0BDE8F08F9F
:2005A0005D46D5E70125D3E70225D1E70325CFE70425CDE70525CBE7003C014000000240C7
:2005C00000380240001402400AB1816170470904FBE70000554B1A6802F00F028A422DE901
:2005E000F04105460E462FD32A68940736D4D0073CD44E4B1A6802F00F02B24200F2868001
:200600002A68510700F18A80130707D5484A2969936823F4604343EAC103936000F01CFA3C
:20062000434BF0229B6892FAA2F2B2FA82F203F0F003D3403F4AD35CD8403F4B18600020EC
:20064000FFF730FE002007E0CAB21A701B6803F00F038B42C8D00120BDE8F0813449A868B8
:200660008B6823F0F00303438B60C0E76A68304B012A1DD11B6813F4003FECD02C4CA3683B
:2006800023F003031343A360FFF742FE6B68012B074641F2883815D1A36803F00C03042B51
:2006A000A7D0FFF735FEC01B4045F5D90320D3E7911E01291B6802D813F0007FDDE713F010
:2006C000020FDAE7022B0AD1A36803F00C03082B8FD0FFF71DFEC01B4045F5D9E6E7032B67
:2006E0000FD1A36803F00C030C2B82D0FFF710FEC01B4045F5D9D9E7FFF70AFEC01B404534
:20070000D4D8A36813F00C0FF6D172E7F2B21A701B6803F00F03B3429DD171E70449E868D6
:200720008B6823F4E05303438B606DE7003C0240003802409C12000800000020014B18685D
:20074000704700BF000000200368F7B5DE07044638D423689D0776D423681E0700F1CB804C
:2007600023685D0728D500230193AD4BAD4D1A6C42F080521A641B6C03F080530193019B5F
:200780002B6843F480732B60FFF7C2FD06462B68DA0540F1D280A44B227A1A70A368002BD0
:2007A00000F0D980FFF7B4FD9D4D064641F288372B6F9B0740F1C880A269002A40F0DB80AC
:2007C00000201EE0964B9A6802F00C02042A10D09A6802F00C02082A02D15B68580208D40A
:2007E0008F4A936803F00C030C2B0CD15368590209D58B4B1B689A03ABD56368002BA8D136
:20080000012003B0F0BD894B22791A7063686BB1FFF77EFD824D06462B689B0399D4FFF757
:2008200077FD801B6428F7D90320EAE7FFF770FD7B4D06462B689F038BD5FFF769FD801B56
:200840006428F7D9F0E7764B9A6812F00C0F10D09A6802F00C02082A02D15B68580208D5A4
:200860006F4A936803F00C030C2B16D15368590213D46B4B1A68920702D5E268012ABFD1FA
:200880001868F82292FAA2F2B2FA82F122698A4020F0F8010A431A605EE7E268644BDAB191
:2008A00001221A60FFF734FD5D4D06462B689B070CD52968F82393FAA3F3B3FA83F22369EB
:2008C000934021F0F80213432B6045E7FFF720FD801B0228EAD9A7E71A60FFF719FD504DE1
:2008E00006462B689F077FF537AFFFF711FD801B0228F6D998E762694E4B7AB101221A60D6
:20090000FFF706FD464D06466B6F98073FF528AFFFF7FEFC801B0228F6D985E71A60FFF71B
:20092000F7FC3F4D06466B6F99077FF519AFFFF7EFFC801B0228F6D976E7FFF7E9FC801BEE
:2009400002287FF624AF6FE7FFF7E2FC801BB8427FF62EAF68E7FFF7DBFC314D064641F2FB
:2009600088372B6F98077FF527AFFFF7D1FC801BB842F6D958E72A4DAB6803F00C03082B10
:200980003FF43EAF2C4E0023022A336056D1FFF7BFFC07462B6899013CD447F6C07C9CFA6A
:2009A000ACFC4FF44032BCFA8CFC92FAA2F24FF07060B2FA82F790FAA0F04FF0E041B0FA24
:2009C00080F091FAA1F1D4E907321343626A02FA0CF21343A26A5208013ABA401343E26AE5
:2009E00002FA00F0226B0E4CB1FA81F1034302FA01F10B436B6001233360FFF789FC05463D
:200A000023689A013FF5DCAEFFF782FC401B0228F6D909E7FFF77CFCC01B0228BAD903E74A
:200A20000038024000700040703802400238024000004742800E474260004742FFF768FC43
:200A400004462B689B017FF5BBAEFFF761FC001B0228F6D9E8E600BF2B4B9A6802F00C02D4
:200A6000082A07D00C2A2CD0284B2948042A18BF184670475A6859685B6811F4800F02F071
:200A80003F0247F6C07191FAA1F0B0FA80F003EA010323FA00F314BF1D481C48B0FBF2F047
:200AA0005843194B4FF440325B6892FAA2F2B2FA82F203F44033D34001335B00B0FBF3F0E5
:200AC00070475A6859685B6811F4800F02F03F0247F6C07191FAA1F0B0FA80F003EA0103BD
:200AE00023FA00F314BF0A480848B0FBF2F05843054B4FF0E0425B6892FAA2F2B2FA82F295
:200B000003F0E043D340D9E7003802400024F40000127A002DE9F041069E0446884617466E
:200B20001D462268936838EA03030CBF012300239F4201D100202BE06B1CF3D055BB2368D0
:200B40005A6822F0E0025A606268B2F5827F0AD1A268B2F5004F02D0B2F5806F03D11A681A
:200B600022F040021A60A26AB2F5005F09D11A6822F400521204120C1A601A6842F4005219
:200B80001A60012384F85130002384F850300320BDE8F081FFF7BCFB801BA842C1D3CEE7E7
:200BA00013B50B460092802100220446FFF7B2FF20B1636D43F020036365032002B010BD75
:200BC00010B50446002836D00023836290F8513003F0FF021BB980F8502000F0D1FA2168D3
:200BE000A269022384F851300B6823F040030B60D4E901300343E06803432069034360693A
:200C00000343E0690343206A0343A06A034302F4007003430B60120C636A02F004021A4388
:200C20004A60CB6923F40063CB6100200123606584F8513010BD0120FCE72DE9FF411E469F
:200C400090F85030012B04460D46904600F09D80012380F85030FFF75BFB074694F851004E
:200C6000C0B2012840F08F80002D4FD0B8F1000F4CD0032384F85130A268256300236365DA
:200C8000A363A4F83680A387E387C4E910332368A4F83480B2F5004F08BF1A68E16804BF52
:200CA00042F480421A601A6852065EBF1A6842F040021A60B1F5006F626838D11AB1E28E38
:200CC00092B2012A06D135F8022BDA60E38E013B9BB2E386E38E9BB293B90097334601229A
:200CE00002212046FFF716FF78B93A4631462046FFF756FF002838D020236365012005E046
:200D000023689A689007DED44EB90320012384F85130002384F8503004B0BDE8F081711C3C
:200D2000D8D0FFF7F5FAC01BB042D3D3EDE71AB1E28E92B2012A06D115F8012B1A73E38E27
:200D4000013B9BB2E386E38E9BB2002BC5D023689A689207F0D4002ED7D0731CF3D0FFF71C
:200D6000D7FAC01BB042EED3CFE7A36833B903932368DA6803929B680393039B606D00303B
:200D800018BF0120C2E70220C0E70220C4E7000070B58AB0294B2A482A4D002401941A6B22
:200DA00042F004021A631A6B02F004020192019A02941A6B42F080021A631A6B02F080028E
:200DC0000292029A03941A6B42F001021A631A6B02F001020392039A04941A6B42F0020216
:200DE0001A631B6B079403F002030493049B164B4FF4005205A9CDE90523FFF70BFB0C217C
:200E00000223CDE9051303200723CDE9080305A90E4807944026FFF7FDFA012305A928469F
:200E2000CDE90563CDE90744FFF7F4FA224631462846FFF7C9FB0AB070BD00BF0038024088
:200E40000008024000040240000012100000024030B595B0274B002100911A6C42F08052C6
:200E60001A641B6C244A03F080530093009B0191136823F4404343F480431360136803F485
:200E800040430193019B012205230224CDE907234FF48003CDE90D430425402307A8CDE991
:200EA0000F53CDE911441394FFF74EFC00B1FEE70F23CDE902344FF480530490CDE9053095
:200EC000214602A8FFF786FB044600B1FEE7FFF735FC4FF47A73B0FBF3F0FFF773FA2846F4
:200EE000FFF786FA224621464FF0FF30FFF736FA15B030BD0038024000700040F7B5FFF79B
:200F0000E5F9FFF7A5FFFFF743FF00F017F9844B8448844D844CCDE90033082201236946FF
:200F2000FFF78BFE012240217F48FFF74DFB0120FFF7F4F9002240217B48FFF745FB4FF4E6
:200F40007A70FFF7EBF94FF00F13CDE900330822012369467348FFF770FE01224021724829
:200F6000FFF732FB0120FFF7D9F9002240216E48FFF72AFB0120FFF7D1F94FF00913CDE91F
:200F800000330822012369466648FFF756FE012240216548FFF718FB0120FFF7BFF90022FE
:200FA00040216148FFF710FB0120FFF7B7F95F4B5C48CDE90033082201236946FFF73DFEFA
:200FC000012240215848FFF7FFFA0120FFF7A6F9002240215448FFF7F7FA0120FFF79EF994
:200FE000534B5048CDE90033082201236946FFF724FE012240214C48FFF7E6FA0120FFF7B8
:201000008DF9002240214848FFF7DEFA0120FFF785F9484B4348CDE90033082201236946D0
:20102000FFF70BFE012240213F48FFF7CDFA0120FFF774F9002240213B48FFF7C5FA012089
:20104000FFF76CF901270126F9B27B1EC1F1090206FA03F3DBB2D2B28DF800108DF8013093
:201060008DF802208DF803308DF804108DF805308DF806208DF80730082233466946284697
:20108000FFF7DBFD324640212046FFF79DFA3046FFF744F9002240212046FFF795FA374424
:2010A0003046FFF73BF9092FCDD14FF47A70FFF735F90127F2B2711EC2F1090307FA01F15C
:2010C000C9B2DBB28DF800308DF801108DF802208DF803108DF804308DF805103B468DF825
:2010E00006208DF80710082269462846FFF7A5FD3A4640212046FFF767FA3846FFF70EF936
:20110000002240212046FFF75FFA3E443846FFF705F9092ECDD14FF47A70FFF7FFF891E73C
:201120000F010F0124000020000402400A010A010B070B070C010C01FEE700000E480F4A1D
:2011400008B54FF48273C0E900230023C0E90233C0E904334FF400713022C0E9083383621E
:201160000A23C0E90612C362FFF72AFD18B1BDE80840FFF7E1BF08BD240000200030014079
:201180007FB502680F4B9A4219D1002103F5843300915A6C0C4842F480525A645B6C0391F5
:2011A00003F480530093009BA02202230321CDE901230523CDE9041301A9FFF72BF907B0E2
:2011C0005DF804FB003001400000024008B50720FFF7B2F8002211466FF00B00FFF7BEF8F5
:2011E000002211466FF00A00FFF7B8F8002211466FF00900FFF7B2F8002211466FF004000A
:20120000FFF7ACF8002211466FF00300FFF7A6F8002211466FF00100FFF7A0F800221146E5
:201220004FF0FF30BDE80840FFF798B808B5FFF767F8BDE80840FFF7E8B8000070B50D4EF8
:201240000D4CA41BA4100025A54209D10B4E0C4C00F018F8A41BA4100025A54205D170BDA9
:2012600056F8253098470135EEE756F8253098470135F2E7AC120008AC120008AC120008FE
:20128000B0120008F8B500BFF8BC08BC9E467047F8B500BFF8BC08BC9E4670470000000086
:2012A000010203040102030406070809E9010008C50100080024F400FFFFFFFFFFFFFFFF2C
:2012C000FFFFFFFFFFFFFFFFFFFFFFFFFFFFFFFFFFFFFFFFFFFFFFFFFFFFFFFFFFFFFFFF2E
:2012E000FFFFFFFFFFFFFFFFFFFFFFFFFFFFFFFFFFFFFFFFFFFFFFFFFFFFFFFFFFFFFFFF0E
:20130000FFFFFFFFFFFFFFFFFFFFFFFFFFFFFFFFFFFFFFFFFFFFFFFFFFFFFFFFFFFFFFFFED
:20132000FFFFFFFFFFFFFFFFFFFFFFFFFFFFFFFFFFFFFFFFFFFFFFFFFFFFFFFFFFFFFFFFCD
:020000040800F2
:00000001FF
